{
  "_format": "hh-sol-artifact-1",
  "contractName": "VisualVault",
  "sourceName": "contracts/VisualVault.sol",
  "abi": [
    {
      "inputs": [
        {
          "internalType": "string",
          "name": "_name",
          "type": "string"
        },
        {
          "internalType": "string",
          "name": "_tokenURI",
          "type": "string"
        }
      ],
      "name": "addUserProfile",
      "outputs": [],
      "stateMutability": "nonpayable",
      "type": "function"
    },
    {
      "inputs": [
        {
          "internalType": "bytes32",
          "name": "_bytes32",
          "type": "bytes32"
        }
      ],
      "name": "bytes32ToString",
      "outputs": [
        {
          "internalType": "string",
          "name": "",
          "type": "string"
        }
      ],
      "stateMutability": "pure",
      "type": "function"
    },
    {
      "inputs": [
        {
          "internalType": "address",
          "name": "userAddress",
          "type": "address"
        }
      ],
      "name": "getUserInfo",
      "outputs": [
        {
          "components": [
            {
              "internalType": "address",
              "name": "accountAddress",
              "type": "address"
            },
            {
              "internalType": "string",
              "name": "name",
              "type": "string"
            },
            {
              "internalType": "string",
              "name": "tokenURI",
              "type": "string"
            },
            {
              "components": [
                {
                  "internalType": "string",
                  "name": "siteDomain",
                  "type": "string"
                },
                {
                  "internalType": "string",
                  "name": "passwordHash",
                  "type": "string"
                }
              ],
              "internalType": "struct VisualVault.PasswordStruct[]",
              "name": "passwords",
              "type": "tuple[]"
            }
          ],
          "internalType": "struct VisualVault.User",
          "name": "",
          "type": "tuple"
        }
      ],
      "stateMutability": "view",
      "type": "function"
    },
    {
      "inputs": [
        {
          "internalType": "string",
          "name": "_cidURI",
          "type": "string"
        }
      ],
      "name": "hash",
      "outputs": [
        {
          "internalType": "bytes32",
          "name": "",
          "type": "bytes32"
        }
      ],
      "stateMutability": "pure",
      "type": "function"
    },
    {
      "inputs": [
        {
          "internalType": "address",
          "name": "",
          "type": "address"
        }
      ],
      "name": "isProfileSet",
      "outputs": [
        {
          "internalType": "bool",
          "name": "",
          "type": "bool"
        }
      ],
      "stateMutability": "view",
      "type": "function"
    },
    {
      "inputs": [
        {
          "internalType": "string",
          "name": "_siteDomain",
          "type": "string"
        },
        {
          "internalType": "string",
          "name": "_tokenURI",
          "type": "string"
        }
      ],
      "name": "savePassword",
      "outputs": [],
      "stateMutability": "nonpayable",
      "type": "function"
    },
    {
      "inputs": [
        {
          "internalType": "uint8",
          "name": "_uint8",
          "type": "uint8"
        }
      ],
      "name": "toByte",
      "outputs": [
        {
          "internalType": "bytes1",
          "name": "",
          "type": "bytes1"
        }
      ],
      "stateMutability": "pure",
      "type": "function"
    }
  ],
  "bytecode": "0x608060405234801561001057600080fd5b50611957806100206000396000f3fe608060405234801561001057600080fd5b506004361061007d5760003560e01c80639201de551161005b5780639201de55146100fe578063a86b73f01461012e578063b411ee941461015e578063b6b9bd141461018e5761007d565b8063185756ae146100825780636386c1c7146100b257806375a7868b146100e2575b600080fd5b61009c60048036038101906100979190610d1a565b6101aa565b6040516100a99190610d62565b60405180910390f35b6100cc60048036038101906100c79190610d1a565b6101ca565b6040516100d99190610f93565b60405180910390f35b6100fc60048036038101906100f791906110ea565b6105ac565b005b61011860048036038101906101139190611198565b610706565b604051610125919061120f565b60405180910390f35b6101486004803603810190610143919061126a565b6108bc565b60405161015591906112d2565b60405180910390f35b610178600480360381019061017391906112ed565b6108f9565b6040516101859190611345565b60405180910390f35b6101a860048036038101906101a391906110ea565b610929565b005b60026020528060005260406000206000915054906101000a900460ff1681565b6101d2610b54565b600260008373ffffffffffffffffffffffffffffffffffffffff1673ffffffffffffffffffffffffffffffffffffffff16815260200190815260200160002060009054906101000a900460ff1661025e576040517f08c379a0000000000000000000000000000000000000000000000000000000008152600401610255906113ac565b60405180910390fd5b600160008373ffffffffffffffffffffffffffffffffffffffff1673ffffffffffffffffffffffffffffffffffffffff1681526020019081526020016000206040518060800160405290816000820160009054906101000a900473ffffffffffffffffffffffffffffffffffffffff1673ffffffffffffffffffffffffffffffffffffffff1673ffffffffffffffffffffffffffffffffffffffff16815260200160018201805461030e906113fb565b80601f016020809104026020016040519081016040528092919081815260200182805461033a906113fb565b80156103875780601f1061035c57610100808354040283529160200191610387565b820191906000526020600020905b81548152906001019060200180831161036a57829003601f168201915b505050505081526020016002820180546103a0906113fb565b80601f01602080910402602001604051908101604052809291908181526020018280546103cc906113fb565b80156104195780601f106103ee57610100808354040283529160200191610419565b820191906000526020600020905b8154815290600101906020018083116103fc57829003601f168201915b5050505050815260200160038201805480602002602001604051908101604052809291908181526020016000905b8282101561059d578382906000526020600020906002020160405180604001604052908160008201805461047a906113fb565b80601f01602080910402602001604051908101604052809291908181526020018280546104a6906113fb565b80156104f35780601f106104c8576101008083540402835291602001916104f3565b820191906000526020600020905b8154815290600101906020018083116104d657829003601f168201915b5050505050815260200160018201805461050c906113fb565b80601f0160208091040260200160405190810160405280929190818152602001828054610538906113fb565b80156105855780601f1061055a57610100808354040283529160200191610585565b820191906000526020600020905b81548152906001019060200180831161056857829003601f168201915b50505050508152505081526020019060010190610447565b50505050815250509050919050565b600260003373ffffffffffffffffffffffffffffffffffffffff1673ffffffffffffffffffffffffffffffffffffffff16815260200190815260200160002060009054906101000a900460ff16610638576040517f08c379a000000000000000000000000000000000000000000000000000000000815260040161062f906113ac565b60405180910390fd5b6000610643826108f9565b9050600061065082610706565b9050600160003373ffffffffffffffffffffffffffffffffffffffff1673ffffffffffffffffffffffffffffffffffffffff168152602001908152602001600020600301604051806040016040528086815260200183815250908060018154018082558091505060019003906000526020600020906002020160009091909190915060008201518160000190816106e791906115e2565b5060208201518160010190816106fd91906115e2565b50505050505050565b6060600080604067ffffffffffffffff81111561072657610725610fbf565b5b6040519080825280601f01601f1916602001820160405280156107585781602001600182028036833780820191505090505b509050600091505b80518260ff1610156108b2576000600f60f81b856002856107819190611712565b60ff166020811061079557610794611743565b5b1a60f81b1660f81c905060006004866002866107b19190611712565b60ff16602081106107c5576107c4611743565b5b1a60f81b7effffffffffffffffffffffffffffffffffffffffffffffffffffffffffffff1916901c60f81c90506107fb826108bc565b838560ff168151811061081157610810611743565b5b60200101907effffffffffffffffffffffffffffffffffffffffffffffffffffffffffffff1916908160001a90535060018461084d9190611772565b9350610858816108bc565b838560ff168151811061086e5761086d611743565b5b60200101907effffffffffffffffffffffffffffffffffffffffffffffffffffffffffffff1916908160001a905350505081806108aa906117a7565b925050610760565b8092505050919050565b6000600a8260ff1610156108e1576030826108d79190611772565b60f81b90506108f4565b6057826108ee9190611772565b60f81b90505b919050565b60008160405160200161090c919061180c565b604051602081830303815290604052805190602001209050919050565b600073ffffffffffffffffffffffffffffffffffffffff163373ffffffffffffffffffffffffffffffffffffffff160361096257600080fd5b6000600160003373ffffffffffffffffffffffffffffffffffffffff1673ffffffffffffffffffffffffffffffffffffffff1681526020019081526020016000209050338160000160006101000a81548173ffffffffffffffffffffffffffffffffffffffff021916908373ffffffffffffffffffffffffffffffffffffffff160217905550828160010190816109f991906115e2565b5081816002019081610a0b91906115e2565b5080600160003373ffffffffffffffffffffffffffffffffffffffff1673ffffffffffffffffffffffffffffffffffffffff1681526020019081526020016000206000820160009054906101000a900473ffffffffffffffffffffffffffffffffffffffff168160000160006101000a81548173ffffffffffffffffffffffffffffffffffffffff021916908373ffffffffffffffffffffffffffffffffffffffff16021790555060018201816001019081610ac79190611839565b5060028201816002019081610adc9190611839565b506003820181600301908054610af3929190610b92565b509050506001600260003373ffffffffffffffffffffffffffffffffffffffff1673ffffffffffffffffffffffffffffffffffffffff16815260200190815260200160002060006101000a81548160ff021916908315150217905550505050565b6040518060800160405280600073ffffffffffffffffffffffffffffffffffffffff1681526020016060815260200160608152602001606081525090565b828054828255906000526020600020906002028101928215610c035760005260206000209160020282015b82811115610c0257828260008201816000019081610bdb9190611839565b5060018201816001019081610bf09190611839565b50505091600201919060020190610bbd565b5b509050610c109190610c14565b5090565b5b80821115610c475760008082016000610c2e9190610c4b565b600182016000610c3e9190610c4b565b50600201610c15565b5090565b508054610c57906113fb565b6000825580601f10610c695750610c88565b601f016020900490600052602060002090810190610c879190610c8b565b5b50565b5b80821115610ca4576000816000905550600101610c8c565b5090565b6000604051905090565b600080fd5b600080fd5b600073ffffffffffffffffffffffffffffffffffffffff82169050919050565b6000610ce782610cbc565b9050919050565b610cf781610cdc565b8114610d0257600080fd5b50565b600081359050610d1481610cee565b92915050565b600060208284031215610d3057610d2f610cb2565b5b6000610d3e84828501610d05565b91505092915050565b60008115159050919050565b610d5c81610d47565b82525050565b6000602082019050610d776000830184610d53565b92915050565b610d8681610cdc565b82525050565b600081519050919050565b600082825260208201905092915050565b60005b83811015610dc6578082015181840152602081019050610dab565b60008484015250505050565b6000601f19601f8301169050919050565b6000610dee82610d8c565b610df88185610d97565b9350610e08818560208601610da8565b610e1181610dd2565b840191505092915050565b600081519050919050565b600082825260208201905092915050565b6000819050602082019050919050565b60006040830160008301518482036000860152610e658282610de3565b91505060208301518482036020860152610e7f8282610de3565b9150508091505092915050565b6000610e988383610e48565b905092915050565b6000602082019050919050565b6000610eb882610e1c565b610ec28185610e27565b935083602082028501610ed485610e38565b8060005b85811015610f105784840389528151610ef18582610e8c565b9450610efc83610ea0565b925060208a01995050600181019050610ed8565b50829750879550505050505092915050565b6000608083016000830151610f3a6000860182610d7d565b5060208301518482036020860152610f528282610de3565b91505060408301518482036040860152610f6c8282610de3565b91505060608301518482036060860152610f868282610ead565b9150508091505092915050565b60006020820190508181036000830152610fad8184610f22565b905092915050565b600080fd5b600080fd5b7f4e487b7100000000000000000000000000000000000000000000000000000000600052604160045260246000fd5b610ff782610dd2565b810181811067ffffffffffffffff8211171561101657611015610fbf565b5b80604052505050565b6000611029610ca8565b90506110358282610fee565b919050565b600067ffffffffffffffff82111561105557611054610fbf565b5b61105e82610dd2565b9050602081019050919050565b82818337600083830152505050565b600061108d6110888461103a565b61101f565b9050828152602081018484840111156110a9576110a8610fba565b5b6110b484828561106b565b509392505050565b600082601f8301126110d1576110d0610fb5565b5b81356110e184826020860161107a565b91505092915050565b6000806040838503121561110157611100610cb2565b5b600083013567ffffffffffffffff81111561111f5761111e610cb7565b5b61112b858286016110bc565b925050602083013567ffffffffffffffff81111561114c5761114b610cb7565b5b611158858286016110bc565b9150509250929050565b6000819050919050565b61117581611162565b811461118057600080fd5b50565b6000813590506111928161116c565b92915050565b6000602082840312156111ae576111ad610cb2565b5b60006111bc84828501611183565b91505092915050565b600082825260208201905092915050565b60006111e182610d8c565b6111eb81856111c5565b93506111fb818560208601610da8565b61120481610dd2565b840191505092915050565b6000602082019050818103600083015261122981846111d6565b905092915050565b600060ff82169050919050565b61124781611231565b811461125257600080fd5b50565b6000813590506112648161123e565b92915050565b6000602082840312156112805761127f610cb2565b5b600061128e84828501611255565b91505092915050565b60007fff0000000000000000000000000000000000000000000000000000000000000082169050919050565b6112cc81611297565b82525050565b60006020820190506112e760008301846112c3565b92915050565b60006020828403121561130357611302610cb2565b5b600082013567ffffffffffffffff81111561132157611320610cb7565b5b61132d848285016110bc565b91505092915050565b61133f81611162565b82525050565b600060208201905061135a6000830184611336565b92915050565b7f6e6f206164647265737300000000000000000000000000000000000000000000600082015250565b6000611396600a836111c5565b91506113a182611360565b602082019050919050565b600060208201905081810360008301526113c581611389565b9050919050565b7f4e487b7100000000000000000000000000000000000000000000000000000000600052602260045260246000fd5b6000600282049050600182168061141357607f821691505b602082108103611426576114256113cc565b5b50919050565b60008190508160005260206000209050919050565b60006020601f8301049050919050565b600082821b905092915050565b60006008830261148e7fffffffffffffffffffffffffffffffffffffffffffffffffffffffffffffffff82611451565b6114988683611451565b95508019841693508086168417925050509392505050565b6000819050919050565b6000819050919050565b60006114df6114da6114d5846114b0565b6114ba565b6114b0565b9050919050565b6000819050919050565b6114f9836114c4565b61150d611505826114e6565b84845461145e565b825550505050565b600090565b611522611515565b61152d8184846114f0565b505050565b5b818110156115515761154660008261151a565b600181019050611533565b5050565b601f821115611596576115678161142c565b61157084611441565b8101602085101561157f578190505b61159361158b85611441565b830182611532565b50505b505050565b600082821c905092915050565b60006115b96000198460080261159b565b1980831691505092915050565b60006115d283836115a8565b9150826002028217905092915050565b6115eb82610d8c565b67ffffffffffffffff81111561160457611603610fbf565b5b61160e82546113fb565b611619828285611555565b600060209050601f83116001811461164c576000841561163a578287015190505b61164485826115c6565b8655506116ac565b601f19841661165a8661142c565b60005b828110156116825784890151825560018201915060208501945060208101905061165d565b8683101561169f578489015161169b601f8916826115a8565b8355505b6001600288020188555050505b505050505050565b7f4e487b7100000000000000000000000000000000000000000000000000000000600052601260045260246000fd5b7f4e487b7100000000000000000000000000000000000000000000000000000000600052601160045260246000fd5b600061171d82611231565b915061172883611231565b925082611738576117376116b4565b5b828204905092915050565b7f4e487b7100000000000000000000000000000000000000000000000000000000600052603260045260246000fd5b600061177d82611231565b915061178883611231565b9250828201905060ff8111156117a1576117a06116e3565b5b92915050565b60006117b282611231565b915060ff82036117c5576117c46116e3565b5b600182019050919050565b600081905092915050565b60006117e682610d8c565b6117f081856117d0565b9350611800818560208601610da8565b80840191505092915050565b600061181882846117db565b915081905092915050565b600081549050611832816113fb565b9050919050565b81810361184757505061191f565b61185082611823565b67ffffffffffffffff81111561186957611868610fbf565b5b61187382546113fb565b61187e828285611555565b6000601f8311600181146118ad576000841561189b578287015490505b6118a585826115c6565b865550611918565b601f1984166118bb8761142c565b96506118c68661142c565b60005b828110156118ee578489015482556001820191506001850194506020810190506118c9565b8683101561190b5784890154611907601f8916826115a8565b8355505b6001600288020188555050505b5050505050505b56fea2646970667358221220c0920b1009e45fe144daa94af84e07c4137e6ca1b1dccf723541660a5974caea64736f6c63430008110033",
  "linkReferences": {},
  "deployedLinkReferences": {}
}