{
  "_format": "hh-sol-artifact-1",
  "contractName": "VisualVault",
  "sourceName": "contracts/VisualVault.sol",
  "abi": [
    {
      "inputs": [
        {
          "internalType": "string",
          "name": "_name",
          "type": "string"
        },
        {
          "internalType": "string",
          "name": "_tokenURI",
          "type": "string"
        }
      ],
      "name": "addUserProfile",
      "outputs": [],
      "stateMutability": "nonpayable",
      "type": "function"
    },
    {
      "inputs": [
        {
          "internalType": "bytes32",
          "name": "_bytes32",
          "type": "bytes32"
        }
      ],
      "name": "bytes32ToString",
      "outputs": [
        {
          "internalType": "string",
          "name": "",
          "type": "string"
        }
      ],
      "stateMutability": "pure",
      "type": "function"
    },
    {
      "inputs": [
        {
          "internalType": "address",
          "name": "userAddress",
          "type": "address"
        }
      ],
      "name": "getUserInfo",
      "outputs": [
        {
          "components": [
            {
              "internalType": "address",
              "name": "accountAddress",
              "type": "address"
            },
            {
              "internalType": "string",
              "name": "name",
              "type": "string"
            },
            {
              "internalType": "string",
              "name": "tokenURI",
              "type": "string"
            },
            {
              "components": [
                {
                  "internalType": "string",
                  "name": "siteDomain",
                  "type": "string"
                },
                {
                  "internalType": "string",
                  "name": "passwordHash",
                  "type": "string"
                }
              ],
              "internalType": "struct VisualVault.PasswordStruct[]",
              "name": "passwords",
              "type": "tuple[]"
            }
          ],
          "internalType": "struct VisualVault.User",
          "name": "",
          "type": "tuple"
        }
      ],
      "stateMutability": "view",
      "type": "function"
    },
    {
      "inputs": [
        {
          "internalType": "string",
          "name": "_cidURI",
          "type": "string"
        }
      ],
      "name": "hash",
      "outputs": [
        {
          "internalType": "bytes32",
          "name": "",
          "type": "bytes32"
        }
      ],
      "stateMutability": "pure",
      "type": "function"
    },
    {
      "inputs": [
        {
          "internalType": "address",
          "name": "",
          "type": "address"
        }
      ],
      "name": "isProfileSet",
      "outputs": [
        {
          "internalType": "bool",
          "name": "",
          "type": "bool"
        }
      ],
      "stateMutability": "view",
      "type": "function"
    },
    {
      "inputs": [
        {
          "internalType": "address",
          "name": "accountAddress",
          "type": "address"
        },
        {
          "internalType": "string",
          "name": "_siteDomain",
          "type": "string"
        },
        {
          "internalType": "string",
          "name": "_tokenURI",
          "type": "string"
        }
      ],
      "name": "login",
      "outputs": [
        {
          "internalType": "bool",
          "name": "",
          "type": "bool"
        }
      ],
      "stateMutability": "view",
      "type": "function"
    },
    {
      "inputs": [
        {
          "internalType": "string",
          "name": "_siteDomain",
          "type": "string"
        },
        {
          "internalType": "string",
          "name": "_tokenURI",
          "type": "string"
        }
      ],
      "name": "savePassword",
      "outputs": [],
      "stateMutability": "nonpayable",
      "type": "function"
    },
    {
      "inputs": [
        {
          "internalType": "uint8",
          "name": "_uint8",
          "type": "uint8"
        }
      ],
      "name": "toByte",
      "outputs": [
        {
          "internalType": "bytes1",
          "name": "",
          "type": "bytes1"
        }
      ],
      "stateMutability": "pure",
      "type": "function"
    }
  ],
  "bytecode": "0x608060405234801561001057600080fd5b50611e12806100206000396000f3fe608060405234801561001057600080fd5b50600436106100885760003560e01c80639201de551161005b5780639201de5514610139578063a86b73f014610169578063b411ee9414610199578063b6b9bd14146101c957610088565b8063185756ae1461008d5780636386c1c7146100bd57806375a7868b146100ed5780637932993714610109575b600080fd5b6100a760048036038101906100a29190611102565b6101e5565b6040516100b4919061114a565b60405180910390f35b6100d760048036038101906100d29190611102565b610205565b6040516100e4919061137b565b60405180910390f35b610107600480360381019061010291906114d2565b6105e7565b005b610123600480360381019061011e919061154a565b610741565b604051610130919061114a565b60405180910390f35b610153600480360381019061014e919061160b565b610aee565b6040516101609190611682565b60405180910390f35b610183600480360381019061017e91906116dd565b610ca4565b6040516101909190611745565b60405180910390f35b6101b360048036038101906101ae9190611760565b610ce1565b6040516101c091906117b8565b60405180910390f35b6101e360048036038101906101de91906114d2565b610d11565b005b60026020528060005260406000206000915054906101000a900460ff1681565b61020d610f3c565b600260008373ffffffffffffffffffffffffffffffffffffffff1673ffffffffffffffffffffffffffffffffffffffff16815260200190815260200160002060009054906101000a900460ff16610299576040517f08c379a00000000000000000000000000000000000000000000000000000000081526004016102909061181f565b60405180910390fd5b600160008373ffffffffffffffffffffffffffffffffffffffff1673ffffffffffffffffffffffffffffffffffffffff1681526020019081526020016000206040518060800160405290816000820160009054906101000a900473ffffffffffffffffffffffffffffffffffffffff1673ffffffffffffffffffffffffffffffffffffffff1673ffffffffffffffffffffffffffffffffffffffff1681526020016001820180546103499061186e565b80601f01602080910402602001604051908101604052809291908181526020018280546103759061186e565b80156103c25780601f10610397576101008083540402835291602001916103c2565b820191906000526020600020905b8154815290600101906020018083116103a557829003601f168201915b505050505081526020016002820180546103db9061186e565b80601f01602080910402602001604051908101604052809291908181526020018280546104079061186e565b80156104545780601f1061042957610100808354040283529160200191610454565b820191906000526020600020905b81548152906001019060200180831161043757829003601f168201915b5050505050815260200160038201805480602002602001604051908101604052809291908181526020016000905b828210156105d857838290600052602060002090600202016040518060400160405290816000820180546104b59061186e565b80601f01602080910402602001604051908101604052809291908181526020018280546104e19061186e565b801561052e5780601f106105035761010080835404028352916020019161052e565b820191906000526020600020905b81548152906001019060200180831161051157829003601f168201915b505050505081526020016001820180546105479061186e565b80601f01602080910402602001604051908101604052809291908181526020018280546105739061186e565b80156105c05780601f10610595576101008083540402835291602001916105c0565b820191906000526020600020905b8154815290600101906020018083116105a357829003601f168201915b50505050508152505081526020019060010190610482565b50505050815250509050919050565b600260003373ffffffffffffffffffffffffffffffffffffffff1673ffffffffffffffffffffffffffffffffffffffff16815260200190815260200160002060009054906101000a900460ff16610673576040517f08c379a000000000000000000000000000000000000000000000000000000000815260040161066a9061181f565b60405180910390fd5b600061067e82610ce1565b9050600061068b82610aee565b9050600160003373ffffffffffffffffffffffffffffffffffffffff1673ffffffffffffffffffffffffffffffffffffffff168152602001908152602001600020600301604051806040016040528086815260200183815250908060018154018082558091505060019003906000526020600020906002020160009091909190915060008201518160000190816107229190611a55565b5060208201518160010190816107389190611a55565b50505050505050565b6000600260008573ffffffffffffffffffffffffffffffffffffffff1673ffffffffffffffffffffffffffffffffffffffff16815260200190815260200160002060009054906101000a900460ff166107cf576040517f08c379a00000000000000000000000000000000000000000000000000000000081526004016107c69061181f565b60405180910390fd5b60005b600160008673ffffffffffffffffffffffffffffffffffffffff1673ffffffffffffffffffffffffffffffffffffffff16815260200190815260200160002060030180549050811015610ae1576000600160008773ffffffffffffffffffffffffffffffffffffffff1673ffffffffffffffffffffffffffffffffffffffff16815260200190815260200160002060030160008154811061087657610875611b27565b5b906000526020600020906002020160000180546108929061186e565b80601f01602080910402602001604051908101604052809291908181526020018280546108be9061186e565b801561090b5780601f106108e05761010080835404028352916020019161090b565b820191906000526020600020905b8154815290600101906020018083116108ee57829003601f168201915b50505050509050846040516020016109239190611b92565b604051602081830303815290604052805190602001208160405160200161094a9190611b92565b6040516020818303038152906040528051906020012003610acd57600061097085610ce1565b9050600061097d82610aee565b90506000600160008a73ffffffffffffffffffffffffffffffffffffffff1673ffffffffffffffffffffffffffffffffffffffff1681526020019081526020016000206003016000815481106109d6576109d5611b27565b5b906000526020600020906002020160010180546109f29061186e565b80601f0160208091040260200160405190810160405280929190818152602001828054610a1e9061186e565b8015610a6b5780601f10610a4057610100808354040283529160200191610a6b565b820191906000526020600020905b815481529060010190602001808311610a4e57829003601f168201915b5050505050905081604051602001610a839190611b92565b6040516020818303038152906040528051906020012081604051602001610aaa9190611b92565b604051602081830303815290604052805190602001201495505050505050610ae7565b508080610ad990611bd8565b9150506107d2565b50600090505b9392505050565b6060600080604067ffffffffffffffff811115610b0e57610b0d6113a7565b5b6040519080825280601f01601f191660200182016040528015610b405781602001600182028036833780820191505090505b509050600091505b80518260ff161015610c9a576000600f60f81b85600285610b699190611c4f565b60ff1660208110610b7d57610b7c611b27565b5b1a60f81b1660f81c90506000600486600286610b999190611c4f565b60ff1660208110610bad57610bac611b27565b5b1a60f81b7effffffffffffffffffffffffffffffffffffffffffffffffffffffffffffff1916901c60f81c9050610be382610ca4565b838560ff1681518110610bf957610bf8611b27565b5b60200101907effffffffffffffffffffffffffffffffffffffffffffffffffffffffffffff1916908160001a905350600184610c359190611c80565b9350610c4081610ca4565b838560ff1681518110610c5657610c55611b27565b5b60200101907effffffffffffffffffffffffffffffffffffffffffffffffffffffffffffff1916908160001a90535050508180610c9290611cb5565b925050610b48565b8092505050919050565b6000600a8260ff161015610cc957603082610cbf9190611c80565b60f81b9050610cdc565b605782610cd69190611c80565b60f81b90505b919050565b600081604051602001610cf49190611b92565b604051602081830303815290604052805190602001209050919050565b600073ffffffffffffffffffffffffffffffffffffffff163373ffffffffffffffffffffffffffffffffffffffff1603610d4a57600080fd5b6000600160003373ffffffffffffffffffffffffffffffffffffffff1673ffffffffffffffffffffffffffffffffffffffff1681526020019081526020016000209050338160000160006101000a81548173ffffffffffffffffffffffffffffffffffffffff021916908373ffffffffffffffffffffffffffffffffffffffff16021790555082816001019081610de19190611a55565b5081816002019081610df39190611a55565b5080600160003373ffffffffffffffffffffffffffffffffffffffff1673ffffffffffffffffffffffffffffffffffffffff1681526020019081526020016000206000820160009054906101000a900473ffffffffffffffffffffffffffffffffffffffff168160000160006101000a81548173ffffffffffffffffffffffffffffffffffffffff021916908373ffffffffffffffffffffffffffffffffffffffff16021790555060018201816001019081610eaf9190611cf4565b5060028201816002019081610ec49190611cf4565b506003820181600301908054610edb929190610f7a565b509050506001600260003373ffffffffffffffffffffffffffffffffffffffff1673ffffffffffffffffffffffffffffffffffffffff16815260200190815260200160002060006101000a81548160ff021916908315150217905550505050565b6040518060800160405280600073ffffffffffffffffffffffffffffffffffffffff1681526020016060815260200160608152602001606081525090565b828054828255906000526020600020906002028101928215610feb5760005260206000209160020282015b82811115610fea57828260008201816000019081610fc39190611cf4565b5060018201816001019081610fd89190611cf4565b50505091600201919060020190610fa5565b5b509050610ff89190610ffc565b5090565b5b8082111561102f57600080820160006110169190611033565b6001820160006110269190611033565b50600201610ffd565b5090565b50805461103f9061186e565b6000825580601f106110515750611070565b601f01602090049060005260206000209081019061106f9190611073565b5b50565b5b8082111561108c576000816000905550600101611074565b5090565b6000604051905090565b600080fd5b600080fd5b600073ffffffffffffffffffffffffffffffffffffffff82169050919050565b60006110cf826110a4565b9050919050565b6110df816110c4565b81146110ea57600080fd5b50565b6000813590506110fc816110d6565b92915050565b6000602082840312156111185761111761109a565b5b6000611126848285016110ed565b91505092915050565b60008115159050919050565b6111448161112f565b82525050565b600060208201905061115f600083018461113b565b92915050565b61116e816110c4565b82525050565b600081519050919050565b600082825260208201905092915050565b60005b838110156111ae578082015181840152602081019050611193565b60008484015250505050565b6000601f19601f8301169050919050565b60006111d682611174565b6111e0818561117f565b93506111f0818560208601611190565b6111f9816111ba565b840191505092915050565b600081519050919050565b600082825260208201905092915050565b6000819050602082019050919050565b6000604083016000830151848203600086015261124d82826111cb565b9150506020830151848203602086015261126782826111cb565b9150508091505092915050565b60006112808383611230565b905092915050565b6000602082019050919050565b60006112a082611204565b6112aa818561120f565b9350836020820285016112bc85611220565b8060005b858110156112f857848403895281516112d98582611274565b94506112e483611288565b925060208a019950506001810190506112c0565b50829750879550505050505092915050565b60006080830160008301516113226000860182611165565b506020830151848203602086015261133a82826111cb565b9150506040830151848203604086015261135482826111cb565b9150506060830151848203606086015261136e8282611295565b9150508091505092915050565b60006020820190508181036000830152611395818461130a565b905092915050565b600080fd5b600080fd5b7f4e487b7100000000000000000000000000000000000000000000000000000000600052604160045260246000fd5b6113df826111ba565b810181811067ffffffffffffffff821117156113fe576113fd6113a7565b5b80604052505050565b6000611411611090565b905061141d82826113d6565b919050565b600067ffffffffffffffff82111561143d5761143c6113a7565b5b611446826111ba565b9050602081019050919050565b82818337600083830152505050565b600061147561147084611422565b611407565b905082815260208101848484011115611491576114906113a2565b5b61149c848285611453565b509392505050565b600082601f8301126114b9576114b861139d565b5b81356114c9848260208601611462565b91505092915050565b600080604083850312156114e9576114e861109a565b5b600083013567ffffffffffffffff8111156115075761150661109f565b5b611513858286016114a4565b925050602083013567ffffffffffffffff8111156115345761153361109f565b5b611540858286016114a4565b9150509250929050565b6000806000606084860312156115635761156261109a565b5b6000611571868287016110ed565b935050602084013567ffffffffffffffff8111156115925761159161109f565b5b61159e868287016114a4565b925050604084013567ffffffffffffffff8111156115bf576115be61109f565b5b6115cb868287016114a4565b9150509250925092565b6000819050919050565b6115e8816115d5565b81146115f357600080fd5b50565b600081359050611605816115df565b92915050565b6000602082840312156116215761162061109a565b5b600061162f848285016115f6565b91505092915050565b600082825260208201905092915050565b600061165482611174565b61165e8185611638565b935061166e818560208601611190565b611677816111ba565b840191505092915050565b6000602082019050818103600083015261169c8184611649565b905092915050565b600060ff82169050919050565b6116ba816116a4565b81146116c557600080fd5b50565b6000813590506116d7816116b1565b92915050565b6000602082840312156116f3576116f261109a565b5b6000611701848285016116c8565b91505092915050565b60007fff0000000000000000000000000000000000000000000000000000000000000082169050919050565b61173f8161170a565b82525050565b600060208201905061175a6000830184611736565b92915050565b6000602082840312156117765761177561109a565b5b600082013567ffffffffffffffff8111156117945761179361109f565b5b6117a0848285016114a4565b91505092915050565b6117b2816115d5565b82525050565b60006020820190506117cd60008301846117a9565b92915050565b7f6e6f206164647265737300000000000000000000000000000000000000000000600082015250565b6000611809600a83611638565b9150611814826117d3565b602082019050919050565b60006020820190508181036000830152611838816117fc565b9050919050565b7f4e487b7100000000000000000000000000000000000000000000000000000000600052602260045260246000fd5b6000600282049050600182168061188657607f821691505b6020821081036118995761189861183f565b5b50919050565b60008190508160005260206000209050919050565b60006020601f8301049050919050565b600082821b905092915050565b6000600883026119017fffffffffffffffffffffffffffffffffffffffffffffffffffffffffffffffff826118c4565b61190b86836118c4565b95508019841693508086168417925050509392505050565b6000819050919050565b6000819050919050565b600061195261194d61194884611923565b61192d565b611923565b9050919050565b6000819050919050565b61196c83611937565b61198061197882611959565b8484546118d1565b825550505050565b600090565b611995611988565b6119a0818484611963565b505050565b5b818110156119c4576119b960008261198d565b6001810190506119a6565b5050565b601f821115611a09576119da8161189f565b6119e3846118b4565b810160208510156119f2578190505b611a066119fe856118b4565b8301826119a5565b50505b505050565b600082821c905092915050565b6000611a2c60001984600802611a0e565b1980831691505092915050565b6000611a458383611a1b565b9150826002028217905092915050565b611a5e82611174565b67ffffffffffffffff811115611a7757611a766113a7565b5b611a81825461186e565b611a8c8282856119c8565b600060209050601f831160018114611abf5760008415611aad578287015190505b611ab78582611a39565b865550611b1f565b601f198416611acd8661189f565b60005b82811015611af557848901518255600182019150602085019450602081019050611ad0565b86831015611b125784890151611b0e601f891682611a1b565b8355505b6001600288020188555050505b505050505050565b7f4e487b7100000000000000000000000000000000000000000000000000000000600052603260045260246000fd5b600081905092915050565b6000611b6c82611174565b611b768185611b56565b9350611b86818560208601611190565b80840191505092915050565b6000611b9e8284611b61565b915081905092915050565b7f4e487b7100000000000000000000000000000000000000000000000000000000600052601160045260246000fd5b6000611be382611923565b91507fffffffffffffffffffffffffffffffffffffffffffffffffffffffffffffffff8203611c1557611c14611ba9565b5b600182019050919050565b7f4e487b7100000000000000000000000000000000000000000000000000000000600052601260045260246000fd5b6000611c5a826116a4565b9150611c65836116a4565b925082611c7557611c74611c20565b5b828204905092915050565b6000611c8b826116a4565b9150611c96836116a4565b9250828201905060ff811115611caf57611cae611ba9565b5b92915050565b6000611cc0826116a4565b915060ff8203611cd357611cd2611ba9565b5b600182019050919050565b600081549050611ced8161186e565b9050919050565b818103611d02575050611dda565b611d0b82611cde565b67ffffffffffffffff811115611d2457611d236113a7565b5b611d2e825461186e565b611d398282856119c8565b6000601f831160018114611d685760008415611d56578287015490505b611d608582611a39565b865550611dd3565b601f198416611d768761189f565b9650611d818661189f565b60005b82811015611da957848901548255600182019150600185019450602081019050611d84565b86831015611dc65784890154611dc2601f891682611a1b565b8355505b6001600288020188555050505b5050505050505b56fea2646970667358221220134942a4c9ea3af436539a476467a405f706209dcb540e3de509ac58c50e8efb64736f6c63430008110033",
  "linkReferences": {},
  "deployedLinkReferences": {}
}