{
  "_format": "hh-sol-artifact-1",
  "contractName": "VisualVault",
  "sourceName": "contracts/VisualVault.sol",
  "abi": [
    {
      "inputs": [
        {
          "internalType": "string",
          "name": "_name",
          "type": "string"
        },
        {
          "internalType": "string",
          "name": "_tokenURI",
          "type": "string"
        }
      ],
      "name": "addUserProfile",
      "outputs": [],
      "stateMutability": "nonpayable",
      "type": "function"
    },
    {
      "inputs": [
        {
          "internalType": "address",
          "name": "",
          "type": "address"
        }
      ],
      "name": "allUsers",
      "outputs": [
        {
          "internalType": "address",
          "name": "accountAddress",
          "type": "address"
        },
        {
          "internalType": "string",
          "name": "name",
          "type": "string"
        },
        {
          "internalType": "string",
          "name": "tokenURI",
          "type": "string"
        }
      ],
      "stateMutability": "view",
      "type": "function"
    },
    {
      "inputs": [
        {
          "internalType": "bytes32",
          "name": "_bytes32",
          "type": "bytes32"
        }
      ],
      "name": "bytes32ToString",
      "outputs": [
        {
          "internalType": "string",
          "name": "",
          "type": "string"
        }
      ],
      "stateMutability": "pure",
      "type": "function"
    },
    {
      "inputs": [],
      "name": "getAllPassword",
      "outputs": [
        {
          "components": [
            {
              "internalType": "address",
              "name": "accountAddress",
              "type": "address"
            },
            {
              "internalType": "string",
              "name": "name",
              "type": "string"
            },
            {
              "internalType": "string",
              "name": "tokenURI",
              "type": "string"
            },
            {
              "components": [
                {
                  "internalType": "string",
                  "name": "siteDomain",
                  "type": "string"
                },
                {
                  "internalType": "string",
                  "name": "passwordHash",
                  "type": "string"
                }
              ],
              "internalType": "struct VisualVault.PasswordStruct[]",
              "name": "passwords",
              "type": "tuple[]"
            }
          ],
          "internalType": "struct VisualVault.User",
          "name": "",
          "type": "tuple"
        }
      ],
      "stateMutability": "view",
      "type": "function"
    },
    {
      "inputs": [
        {
          "internalType": "string",
          "name": "_cidURI",
          "type": "string"
        }
      ],
      "name": "hash",
      "outputs": [
        {
          "internalType": "bytes32",
          "name": "",
          "type": "bytes32"
        }
      ],
      "stateMutability": "pure",
      "type": "function"
    },
    {
      "inputs": [
        {
          "internalType": "address",
          "name": "",
          "type": "address"
        }
      ],
      "name": "isProfileSet",
      "outputs": [
        {
          "internalType": "bool",
          "name": "",
          "type": "bool"
        }
      ],
      "stateMutability": "view",
      "type": "function"
    },
    {
      "inputs": [
        {
          "internalType": "string",
          "name": "_siteDomain",
          "type": "string"
        },
        {
          "internalType": "string",
          "name": "_tokenURI",
          "type": "string"
        }
      ],
      "name": "savePassword",
      "outputs": [],
      "stateMutability": "nonpayable",
      "type": "function"
    },
    {
      "inputs": [
        {
          "internalType": "uint8",
          "name": "_uint8",
          "type": "uint8"
        }
      ],
      "name": "toByte",
      "outputs": [
        {
          "internalType": "bytes1",
          "name": "",
          "type": "bytes1"
        }
      ],
      "stateMutability": "pure",
      "type": "function"
    }
  ],
  "bytecode": "0x608060405234801561001057600080fd5b50611b34806100206000396000f3fe608060405234801561001057600080fd5b50600436106100885760003560e01c8063a86b73f01161005b578063a86b73f014610127578063b411ee9414610157578063b6b9bd1414610187578063edbece37146101a357610088565b8063185756ae1461008d57806375a7868b146100bd5780638088687f146100d95780639201de55146100f7575b600080fd5b6100a760048036038101906100a29190610ea3565b6101d5565b6040516100b49190610eeb565b60405180910390f35b6100d760048036038101906100d2919061104c565b6101f5565b005b6100e161034f565b6040516100ee91906112c9565b60405180910390f35b610111600480360381019061010c9190611321565b610735565b60405161011e9190611398565b60405180910390f35b610141600480360381019061013c91906113f3565b6108eb565b60405161014e919061145b565b60405180910390f35b610171600480360381019061016c9190611476565b610928565b60405161017e91906114ce565b60405180910390f35b6101a1600480360381019061019c919061104c565b610958565b005b6101bd60048036038101906101b89190610ea3565b610b83565b6040516101cc939291906114f8565b60405180910390f35b60026020528060005260406000206000915054906101000a900460ff1681565b600260003373ffffffffffffffffffffffffffffffffffffffff1673ffffffffffffffffffffffffffffffffffffffff16815260200190815260200160002060009054906101000a900460ff16610281576040517f08c379a000000000000000000000000000000000000000000000000000000000815260040161027890611589565b60405180910390fd5b600061028c82610928565b9050600061029982610735565b9050600160003373ffffffffffffffffffffffffffffffffffffffff1673ffffffffffffffffffffffffffffffffffffffff1681526020019081526020016000206003016040518060400160405280868152602001838152509080600181540180825580915050600190039060005260206000209060020201600090919091909150600082015181600001908161033091906117bf565b50602082015181600101908161034691906117bf565b50505050505050565b610357610cdd565b600260003373ffffffffffffffffffffffffffffffffffffffff1673ffffffffffffffffffffffffffffffffffffffff16815260200190815260200160002060009054906101000a900460ff166103e3576040517f08c379a00000000000000000000000000000000000000000000000000000000081526004016103da90611589565b60405180910390fd5b6000600160003373ffffffffffffffffffffffffffffffffffffffff1673ffffffffffffffffffffffffffffffffffffffff1681526020019081526020016000206040518060800160405290816000820160009054906101000a900473ffffffffffffffffffffffffffffffffffffffff1673ffffffffffffffffffffffffffffffffffffffff1673ffffffffffffffffffffffffffffffffffffffff168152602001600182018054610495906115d8565b80601f01602080910402602001604051908101604052809291908181526020018280546104c1906115d8565b801561050e5780601f106104e35761010080835404028352916020019161050e565b820191906000526020600020905b8154815290600101906020018083116104f157829003601f168201915b50505050508152602001600282018054610527906115d8565b80601f0160208091040260200160405190810160405280929190818152602001828054610553906115d8565b80156105a05780601f10610575576101008083540402835291602001916105a0565b820191906000526020600020905b81548152906001019060200180831161058357829003601f168201915b5050505050815260200160038201805480602002602001604051908101604052809291908181526020016000905b828210156107245783829060005260206000209060020201604051806040016040529081600082018054610601906115d8565b80601f016020809104026020016040519081016040528092919081815260200182805461062d906115d8565b801561067a5780601f1061064f5761010080835404028352916020019161067a565b820191906000526020600020905b81548152906001019060200180831161065d57829003601f168201915b50505050508152602001600182018054610693906115d8565b80601f01602080910402602001604051908101604052809291908181526020018280546106bf906115d8565b801561070c5780601f106106e15761010080835404028352916020019161070c565b820191906000526020600020905b8154815290600101906020018083116106ef57829003601f168201915b505050505081525050815260200190600101906105ce565b505050508152505090508091505090565b6060600080604067ffffffffffffffff81111561075557610754610f21565b5b6040519080825280601f01601f1916602001820160405280156107875781602001600182028036833780820191505090505b509050600091505b80518260ff1610156108e1576000600f60f81b856002856107b091906118ef565b60ff16602081106107c4576107c3611920565b5b1a60f81b1660f81c905060006004866002866107e091906118ef565b60ff16602081106107f4576107f3611920565b5b1a60f81b7effffffffffffffffffffffffffffffffffffffffffffffffffffffffffffff1916901c60f81c905061082a826108eb565b838560ff16815181106108405761083f611920565b5b60200101907effffffffffffffffffffffffffffffffffffffffffffffffffffffffffffff1916908160001a90535060018461087c919061194f565b9350610887816108eb565b838560ff168151811061089d5761089c611920565b5b60200101907effffffffffffffffffffffffffffffffffffffffffffffffffffffffffffff1916908160001a905350505081806108d990611984565b92505061078f565b8092505050919050565b6000600a8260ff16101561091057603082610906919061194f565b60f81b9050610923565b60578261091d919061194f565b60f81b90505b919050565b60008160405160200161093b91906119e9565b604051602081830303815290604052805190602001209050919050565b600073ffffffffffffffffffffffffffffffffffffffff163373ffffffffffffffffffffffffffffffffffffffff160361099157600080fd5b6000600160003373ffffffffffffffffffffffffffffffffffffffff1673ffffffffffffffffffffffffffffffffffffffff1681526020019081526020016000209050338160000160006101000a81548173ffffffffffffffffffffffffffffffffffffffff021916908373ffffffffffffffffffffffffffffffffffffffff16021790555082816001019081610a2891906117bf565b5081816002019081610a3a91906117bf565b5080600160003373ffffffffffffffffffffffffffffffffffffffff1673ffffffffffffffffffffffffffffffffffffffff1681526020019081526020016000206000820160009054906101000a900473ffffffffffffffffffffffffffffffffffffffff168160000160006101000a81548173ffffffffffffffffffffffffffffffffffffffff021916908373ffffffffffffffffffffffffffffffffffffffff16021790555060018201816001019081610af69190611a16565b5060028201816002019081610b0b9190611a16565b506003820181600301908054610b22929190610d1b565b509050506001600260003373ffffffffffffffffffffffffffffffffffffffff1673ffffffffffffffffffffffffffffffffffffffff16815260200190815260200160002060006101000a81548160ff021916908315150217905550505050565b60016020528060005260406000206000915090508060000160009054906101000a900473ffffffffffffffffffffffffffffffffffffffff1690806001018054610bcc906115d8565b80601f0160208091040260200160405190810160405280929190818152602001828054610bf8906115d8565b8015610c455780601f10610c1a57610100808354040283529160200191610c45565b820191906000526020600020905b815481529060010190602001808311610c2857829003601f168201915b505050505090806002018054610c5a906115d8565b80601f0160208091040260200160405190810160405280929190818152602001828054610c86906115d8565b8015610cd35780601f10610ca857610100808354040283529160200191610cd3565b820191906000526020600020905b815481529060010190602001808311610cb657829003601f168201915b5050505050905083565b6040518060800160405280600073ffffffffffffffffffffffffffffffffffffffff1681526020016060815260200160608152602001606081525090565b828054828255906000526020600020906002028101928215610d8c5760005260206000209160020282015b82811115610d8b57828260008201816000019081610d649190611a16565b5060018201816001019081610d799190611a16565b50505091600201919060020190610d46565b5b509050610d999190610d9d565b5090565b5b80821115610dd05760008082016000610db79190610dd4565b600182016000610dc79190610dd4565b50600201610d9e565b5090565b508054610de0906115d8565b6000825580601f10610df25750610e11565b601f016020900490600052602060002090810190610e109190610e14565b5b50565b5b80821115610e2d576000816000905550600101610e15565b5090565b6000604051905090565b600080fd5b600080fd5b600073ffffffffffffffffffffffffffffffffffffffff82169050919050565b6000610e7082610e45565b9050919050565b610e8081610e65565b8114610e8b57600080fd5b50565b600081359050610e9d81610e77565b92915050565b600060208284031215610eb957610eb8610e3b565b5b6000610ec784828501610e8e565b91505092915050565b60008115159050919050565b610ee581610ed0565b82525050565b6000602082019050610f006000830184610edc565b92915050565b600080fd5b600080fd5b6000601f19601f8301169050919050565b7f4e487b7100000000000000000000000000000000000000000000000000000000600052604160045260246000fd5b610f5982610f10565b810181811067ffffffffffffffff82111715610f7857610f77610f21565b5b80604052505050565b6000610f8b610e31565b9050610f978282610f50565b919050565b600067ffffffffffffffff821115610fb757610fb6610f21565b5b610fc082610f10565b9050602081019050919050565b82818337600083830152505050565b6000610fef610fea84610f9c565b610f81565b90508281526020810184848401111561100b5761100a610f0b565b5b611016848285610fcd565b509392505050565b600082601f83011261103357611032610f06565b5b8135611043848260208601610fdc565b91505092915050565b6000806040838503121561106357611062610e3b565b5b600083013567ffffffffffffffff81111561108157611080610e40565b5b61108d8582860161101e565b925050602083013567ffffffffffffffff8111156110ae576110ad610e40565b5b6110ba8582860161101e565b9150509250929050565b6110cd81610e65565b82525050565b600081519050919050565b600082825260208201905092915050565b60005b8381101561110d5780820151818401526020810190506110f2565b60008484015250505050565b6000611124826110d3565b61112e81856110de565b935061113e8185602086016110ef565b61114781610f10565b840191505092915050565b600081519050919050565b600082825260208201905092915050565b6000819050602082019050919050565b6000604083016000830151848203600086015261119b8282611119565b915050602083015184820360208601526111b58282611119565b9150508091505092915050565b60006111ce838361117e565b905092915050565b6000602082019050919050565b60006111ee82611152565b6111f8818561115d565b93508360208202850161120a8561116e565b8060005b85811015611246578484038952815161122785826111c2565b9450611232836111d6565b925060208a0199505060018101905061120e565b50829750879550505050505092915050565b600060808301600083015161127060008601826110c4565b50602083015184820360208601526112888282611119565b915050604083015184820360408601526112a28282611119565b915050606083015184820360608601526112bc82826111e3565b9150508091505092915050565b600060208201905081810360008301526112e38184611258565b905092915050565b6000819050919050565b6112fe816112eb565b811461130957600080fd5b50565b60008135905061131b816112f5565b92915050565b60006020828403121561133757611336610e3b565b5b60006113458482850161130c565b91505092915050565b600082825260208201905092915050565b600061136a826110d3565b611374818561134e565b93506113848185602086016110ef565b61138d81610f10565b840191505092915050565b600060208201905081810360008301526113b2818461135f565b905092915050565b600060ff82169050919050565b6113d0816113ba565b81146113db57600080fd5b50565b6000813590506113ed816113c7565b92915050565b60006020828403121561140957611408610e3b565b5b6000611417848285016113de565b91505092915050565b60007fff0000000000000000000000000000000000000000000000000000000000000082169050919050565b61145581611420565b82525050565b6000602082019050611470600083018461144c565b92915050565b60006020828403121561148c5761148b610e3b565b5b600082013567ffffffffffffffff8111156114aa576114a9610e40565b5b6114b68482850161101e565b91505092915050565b6114c8816112eb565b82525050565b60006020820190506114e360008301846114bf565b92915050565b6114f281610e65565b82525050565b600060608201905061150d60008301866114e9565b818103602083015261151f818561135f565b90508181036040830152611533818461135f565b9050949350505050565b7f6e6f206164647265737300000000000000000000000000000000000000000000600082015250565b6000611573600a8361134e565b915061157e8261153d565b602082019050919050565b600060208201905081810360008301526115a281611566565b9050919050565b7f4e487b7100000000000000000000000000000000000000000000000000000000600052602260045260246000fd5b600060028204905060018216806115f057607f821691505b602082108103611603576116026115a9565b5b50919050565b60008190508160005260206000209050919050565b60006020601f8301049050919050565b600082821b905092915050565b60006008830261166b7fffffffffffffffffffffffffffffffffffffffffffffffffffffffffffffffff8261162e565b611675868361162e565b95508019841693508086168417925050509392505050565b6000819050919050565b6000819050919050565b60006116bc6116b76116b28461168d565b611697565b61168d565b9050919050565b6000819050919050565b6116d6836116a1565b6116ea6116e2826116c3565b84845461163b565b825550505050565b600090565b6116ff6116f2565b61170a8184846116cd565b505050565b5b8181101561172e576117236000826116f7565b600181019050611710565b5050565b601f8211156117735761174481611609565b61174d8461161e565b8101602085101561175c578190505b6117706117688561161e565b83018261170f565b50505b505050565b600082821c905092915050565b600061179660001984600802611778565b1980831691505092915050565b60006117af8383611785565b9150826002028217905092915050565b6117c8826110d3565b67ffffffffffffffff8111156117e1576117e0610f21565b5b6117eb82546115d8565b6117f6828285611732565b600060209050601f8311600181146118295760008415611817578287015190505b61182185826117a3565b865550611889565b601f19841661183786611609565b60005b8281101561185f5784890151825560018201915060208501945060208101905061183a565b8683101561187c5784890151611878601f891682611785565b8355505b6001600288020188555050505b505050505050565b7f4e487b7100000000000000000000000000000000000000000000000000000000600052601260045260246000fd5b7f4e487b7100000000000000000000000000000000000000000000000000000000600052601160045260246000fd5b60006118fa826113ba565b9150611905836113ba565b92508261191557611914611891565b5b828204905092915050565b7f4e487b7100000000000000000000000000000000000000000000000000000000600052603260045260246000fd5b600061195a826113ba565b9150611965836113ba565b9250828201905060ff81111561197e5761197d6118c0565b5b92915050565b600061198f826113ba565b915060ff82036119a2576119a16118c0565b5b600182019050919050565b600081905092915050565b60006119c3826110d3565b6119cd81856119ad565b93506119dd8185602086016110ef565b80840191505092915050565b60006119f582846119b8565b915081905092915050565b600081549050611a0f816115d8565b9050919050565b818103611a24575050611afc565b611a2d82611a00565b67ffffffffffffffff811115611a4657611a45610f21565b5b611a5082546115d8565b611a5b828285611732565b6000601f831160018114611a8a5760008415611a78578287015490505b611a8285826117a3565b865550611af5565b601f198416611a9887611609565b9650611aa386611609565b60005b82811015611acb57848901548255600182019150600185019450602081019050611aa6565b86831015611ae85784890154611ae4601f891682611785565b8355505b6001600288020188555050505b5050505050505b56fea2646970667358221220b2d0d8c65396d439f3a0e9ecae4771983285d3e3a4a2bf8536f8e6ebcdba786b64736f6c63430008110033",
  "linkReferences": {},
  "deployedLinkReferences": {}
}