{
  "_format": "hh-sol-artifact-1",
  "contractName": "VisualVault",
  "sourceName": "contracts/VisualVault.sol",
  "abi": [
    {
      "inputs": [
        {
          "internalType": "string",
          "name": "_name",
          "type": "string"
        },
        {
          "internalType": "string",
          "name": "_tokenURI",
          "type": "string"
        }
      ],
      "name": "addUserProfile",
      "outputs": [],
      "stateMutability": "nonpayable",
      "type": "function"
    },
    {
      "inputs": [
        {
          "internalType": "bytes32",
          "name": "_bytes32",
          "type": "bytes32"
        }
      ],
      "name": "bytes32ToString",
      "outputs": [
        {
          "internalType": "string",
          "name": "",
          "type": "string"
        }
      ],
      "stateMutability": "pure",
      "type": "function"
    },
    {
      "inputs": [
        {
          "internalType": "address",
          "name": "userAddress",
          "type": "address"
        }
      ],
      "name": "getUserInfo",
      "outputs": [
        {
          "components": [
            {
              "internalType": "address",
              "name": "accountAddress",
              "type": "address"
            },
            {
              "internalType": "string",
              "name": "name",
              "type": "string"
            },
            {
              "internalType": "string",
              "name": "tokenURI",
              "type": "string"
            },
            {
              "components": [
                {
                  "internalType": "string",
                  "name": "siteDomain",
                  "type": "string"
                },
                {
                  "internalType": "string",
                  "name": "passwordHash",
                  "type": "string"
                }
              ],
              "internalType": "struct VisualVault.PasswordStruct[]",
              "name": "passwords",
              "type": "tuple[]"
            }
          ],
          "internalType": "struct VisualVault.User",
          "name": "",
          "type": "tuple"
        }
      ],
      "stateMutability": "view",
      "type": "function"
    },
    {
      "inputs": [
        {
          "internalType": "string",
          "name": "_cidURI",
          "type": "string"
        }
      ],
      "name": "hash",
      "outputs": [
        {
          "internalType": "bytes32",
          "name": "",
          "type": "bytes32"
        }
      ],
      "stateMutability": "pure",
      "type": "function"
    },
    {
      "inputs": [
        {
          "internalType": "address",
          "name": "",
          "type": "address"
        }
      ],
      "name": "isProfileSet",
      "outputs": [
        {
          "internalType": "bool",
          "name": "",
          "type": "bool"
        }
      ],
      "stateMutability": "view",
      "type": "function"
    },
    {
      "inputs": [
        {
          "internalType": "address",
          "name": "accountAddress",
          "type": "address"
        },
        {
          "internalType": "string",
          "name": "_siteDomain",
          "type": "string"
        },
        {
          "internalType": "string",
          "name": "_tokenURI",
          "type": "string"
        }
      ],
      "name": "login",
      "outputs": [
        {
          "internalType": "bool",
          "name": "",
          "type": "bool"
        }
      ],
      "stateMutability": "view",
      "type": "function"
    },
    {
      "inputs": [
        {
          "internalType": "string",
          "name": "_siteDomain",
          "type": "string"
        },
        {
          "internalType": "string",
          "name": "_tokenURI",
          "type": "string"
        }
      ],
      "name": "savePassword",
      "outputs": [],
      "stateMutability": "nonpayable",
      "type": "function"
    },
    {
      "inputs": [
        {
          "internalType": "uint8",
          "name": "_uint8",
          "type": "uint8"
        }
      ],
      "name": "toByte",
      "outputs": [
        {
          "internalType": "bytes1",
          "name": "",
          "type": "bytes1"
        }
      ],
      "stateMutability": "pure",
      "type": "function"
    }
  ],
  "bytecode": "0x608060405234801561001057600080fd5b50611e13806100206000396000f3fe608060405234801561001057600080fd5b50600436106100885760003560e01c80639201de551161005b5780639201de5514610139578063a86b73f014610169578063b411ee9414610199578063b6b9bd14146101c957610088565b8063185756ae1461008d5780636386c1c7146100bd57806375a7868b146100ed5780637932993714610109575b600080fd5b6100a760048036038101906100a29190611103565b6101e5565b6040516100b4919061114b565b60405180910390f35b6100d760048036038101906100d29190611103565b610205565b6040516100e4919061137c565b60405180910390f35b610107600480360381019061010291906114d3565b6105e7565b005b610123600480360381019061011e919061154b565b610741565b604051610130919061114b565b60405180910390f35b610153600480360381019061014e919061160c565b610aef565b6040516101609190611683565b60405180910390f35b610183600480360381019061017e91906116de565b610ca5565b6040516101909190611746565b60405180910390f35b6101b360048036038101906101ae9190611761565b610ce2565b6040516101c091906117b9565b60405180910390f35b6101e360048036038101906101de91906114d3565b610d12565b005b60026020528060005260406000206000915054906101000a900460ff1681565b61020d610f3d565b600260008373ffffffffffffffffffffffffffffffffffffffff1673ffffffffffffffffffffffffffffffffffffffff16815260200190815260200160002060009054906101000a900460ff16610299576040517f08c379a000000000000000000000000000000000000000000000000000000000815260040161029090611820565b60405180910390fd5b600160008373ffffffffffffffffffffffffffffffffffffffff1673ffffffffffffffffffffffffffffffffffffffff1681526020019081526020016000206040518060800160405290816000820160009054906101000a900473ffffffffffffffffffffffffffffffffffffffff1673ffffffffffffffffffffffffffffffffffffffff1673ffffffffffffffffffffffffffffffffffffffff1681526020016001820180546103499061186f565b80601f01602080910402602001604051908101604052809291908181526020018280546103759061186f565b80156103c25780601f10610397576101008083540402835291602001916103c2565b820191906000526020600020905b8154815290600101906020018083116103a557829003601f168201915b505050505081526020016002820180546103db9061186f565b80601f01602080910402602001604051908101604052809291908181526020018280546104079061186f565b80156104545780601f1061042957610100808354040283529160200191610454565b820191906000526020600020905b81548152906001019060200180831161043757829003601f168201915b5050505050815260200160038201805480602002602001604051908101604052809291908181526020016000905b828210156105d857838290600052602060002090600202016040518060400160405290816000820180546104b59061186f565b80601f01602080910402602001604051908101604052809291908181526020018280546104e19061186f565b801561052e5780601f106105035761010080835404028352916020019161052e565b820191906000526020600020905b81548152906001019060200180831161051157829003601f168201915b505050505081526020016001820180546105479061186f565b80601f01602080910402602001604051908101604052809291908181526020018280546105739061186f565b80156105c05780601f10610595576101008083540402835291602001916105c0565b820191906000526020600020905b8154815290600101906020018083116105a357829003601f168201915b50505050508152505081526020019060010190610482565b50505050815250509050919050565b600260003373ffffffffffffffffffffffffffffffffffffffff1673ffffffffffffffffffffffffffffffffffffffff16815260200190815260200160002060009054906101000a900460ff16610673576040517f08c379a000000000000000000000000000000000000000000000000000000000815260040161066a90611820565b60405180910390fd5b600061067e82610ce2565b9050600061068b82610aef565b9050600160003373ffffffffffffffffffffffffffffffffffffffff1673ffffffffffffffffffffffffffffffffffffffff168152602001908152602001600020600301604051806040016040528086815260200183815250908060018154018082558091505060019003906000526020600020906002020160009091909190915060008201518160000190816107229190611a56565b5060208201518160010190816107389190611a56565b50505050505050565b6000600260008573ffffffffffffffffffffffffffffffffffffffff1673ffffffffffffffffffffffffffffffffffffffff16815260200190815260200160002060009054906101000a900460ff166107cf576040517f08c379a00000000000000000000000000000000000000000000000000000000081526004016107c690611820565b60405180910390fd5b60005b600160008673ffffffffffffffffffffffffffffffffffffffff1673ffffffffffffffffffffffffffffffffffffffff16815260200190815260200160002060030180549050811015610ae2576000600160008773ffffffffffffffffffffffffffffffffffffffff1673ffffffffffffffffffffffffffffffffffffffff16815260200190815260200160002060030160008154811061087657610875611b28565b5b906000526020600020906002020160000180546108929061186f565b80601f01602080910402602001604051908101604052809291908181526020018280546108be9061186f565b801561090b5780601f106108e05761010080835404028352916020019161090b565b820191906000526020600020905b8154815290600101906020018083116108ee57829003601f168201915b50505050509050846040516020016109239190611b93565b604051602081830303815290604052805190602001208160405160200161094a9190611b93565b6040516020818303038152906040528051906020012003610ace57600061097085610ce2565b9050600061097d82610aef565b90506000600160008a73ffffffffffffffffffffffffffffffffffffffff1673ffffffffffffffffffffffffffffffffffffffff1681526020019081526020016000206003016000815481106109d6576109d5611b28565b5b906000526020600020906002020160010180546109f29061186f565b80601f0160208091040260200160405190810160405280929190818152602001828054610a1e9061186f565b8015610a6b5780601f10610a4057610100808354040283529160200191610a6b565b820191906000526020600020905b815481529060010190602001808311610a4e57829003601f168201915b5050505050905081604051602001610a839190611b93565b6040516020818303038152906040528051906020012081604051602001610aaa9190611b93565b60405160208183030381529060405280519060200120141595505050505050610ae8565b508080610ada90611bd9565b9150506107d2565b50600090505b9392505050565b6060600080604067ffffffffffffffff811115610b0f57610b0e6113a8565b5b6040519080825280601f01601f191660200182016040528015610b415781602001600182028036833780820191505090505b509050600091505b80518260ff161015610c9b576000600f60f81b85600285610b6a9190611c50565b60ff1660208110610b7e57610b7d611b28565b5b1a60f81b1660f81c90506000600486600286610b9a9190611c50565b60ff1660208110610bae57610bad611b28565b5b1a60f81b7effffffffffffffffffffffffffffffffffffffffffffffffffffffffffffff1916901c60f81c9050610be482610ca5565b838560ff1681518110610bfa57610bf9611b28565b5b60200101907effffffffffffffffffffffffffffffffffffffffffffffffffffffffffffff1916908160001a905350600184610c369190611c81565b9350610c4181610ca5565b838560ff1681518110610c5757610c56611b28565b5b60200101907effffffffffffffffffffffffffffffffffffffffffffffffffffffffffffff1916908160001a90535050508180610c9390611cb6565b925050610b49565b8092505050919050565b6000600a8260ff161015610cca57603082610cc09190611c81565b60f81b9050610cdd565b605782610cd79190611c81565b60f81b90505b919050565b600081604051602001610cf59190611b93565b604051602081830303815290604052805190602001209050919050565b600073ffffffffffffffffffffffffffffffffffffffff163373ffffffffffffffffffffffffffffffffffffffff1603610d4b57600080fd5b6000600160003373ffffffffffffffffffffffffffffffffffffffff1673ffffffffffffffffffffffffffffffffffffffff1681526020019081526020016000209050338160000160006101000a81548173ffffffffffffffffffffffffffffffffffffffff021916908373ffffffffffffffffffffffffffffffffffffffff16021790555082816001019081610de29190611a56565b5081816002019081610df49190611a56565b5080600160003373ffffffffffffffffffffffffffffffffffffffff1673ffffffffffffffffffffffffffffffffffffffff1681526020019081526020016000206000820160009054906101000a900473ffffffffffffffffffffffffffffffffffffffff168160000160006101000a81548173ffffffffffffffffffffffffffffffffffffffff021916908373ffffffffffffffffffffffffffffffffffffffff16021790555060018201816001019081610eb09190611cf5565b5060028201816002019081610ec59190611cf5565b506003820181600301908054610edc929190610f7b565b509050506001600260003373ffffffffffffffffffffffffffffffffffffffff1673ffffffffffffffffffffffffffffffffffffffff16815260200190815260200160002060006101000a81548160ff021916908315150217905550505050565b6040518060800160405280600073ffffffffffffffffffffffffffffffffffffffff1681526020016060815260200160608152602001606081525090565b828054828255906000526020600020906002028101928215610fec5760005260206000209160020282015b82811115610feb57828260008201816000019081610fc49190611cf5565b5060018201816001019081610fd99190611cf5565b50505091600201919060020190610fa6565b5b509050610ff99190610ffd565b5090565b5b8082111561103057600080820160006110179190611034565b6001820160006110279190611034565b50600201610ffe565b5090565b5080546110409061186f565b6000825580601f106110525750611071565b601f0160209004906000526020600020908101906110709190611074565b5b50565b5b8082111561108d576000816000905550600101611075565b5090565b6000604051905090565b600080fd5b600080fd5b600073ffffffffffffffffffffffffffffffffffffffff82169050919050565b60006110d0826110a5565b9050919050565b6110e0816110c5565b81146110eb57600080fd5b50565b6000813590506110fd816110d7565b92915050565b6000602082840312156111195761111861109b565b5b6000611127848285016110ee565b91505092915050565b60008115159050919050565b61114581611130565b82525050565b6000602082019050611160600083018461113c565b92915050565b61116f816110c5565b82525050565b600081519050919050565b600082825260208201905092915050565b60005b838110156111af578082015181840152602081019050611194565b60008484015250505050565b6000601f19601f8301169050919050565b60006111d782611175565b6111e18185611180565b93506111f1818560208601611191565b6111fa816111bb565b840191505092915050565b600081519050919050565b600082825260208201905092915050565b6000819050602082019050919050565b6000604083016000830151848203600086015261124e82826111cc565b9150506020830151848203602086015261126882826111cc565b9150508091505092915050565b60006112818383611231565b905092915050565b6000602082019050919050565b60006112a182611205565b6112ab8185611210565b9350836020820285016112bd85611221565b8060005b858110156112f957848403895281516112da8582611275565b94506112e583611289565b925060208a019950506001810190506112c1565b50829750879550505050505092915050565b60006080830160008301516113236000860182611166565b506020830151848203602086015261133b82826111cc565b9150506040830151848203604086015261135582826111cc565b9150506060830151848203606086015261136f8282611296565b9150508091505092915050565b60006020820190508181036000830152611396818461130b565b905092915050565b600080fd5b600080fd5b7f4e487b7100000000000000000000000000000000000000000000000000000000600052604160045260246000fd5b6113e0826111bb565b810181811067ffffffffffffffff821117156113ff576113fe6113a8565b5b80604052505050565b6000611412611091565b905061141e82826113d7565b919050565b600067ffffffffffffffff82111561143e5761143d6113a8565b5b611447826111bb565b9050602081019050919050565b82818337600083830152505050565b600061147661147184611423565b611408565b905082815260208101848484011115611492576114916113a3565b5b61149d848285611454565b509392505050565b600082601f8301126114ba576114b961139e565b5b81356114ca848260208601611463565b91505092915050565b600080604083850312156114ea576114e961109b565b5b600083013567ffffffffffffffff811115611508576115076110a0565b5b611514858286016114a5565b925050602083013567ffffffffffffffff811115611535576115346110a0565b5b611541858286016114a5565b9150509250929050565b6000806000606084860312156115645761156361109b565b5b6000611572868287016110ee565b935050602084013567ffffffffffffffff811115611593576115926110a0565b5b61159f868287016114a5565b925050604084013567ffffffffffffffff8111156115c0576115bf6110a0565b5b6115cc868287016114a5565b9150509250925092565b6000819050919050565b6115e9816115d6565b81146115f457600080fd5b50565b600081359050611606816115e0565b92915050565b6000602082840312156116225761162161109b565b5b6000611630848285016115f7565b91505092915050565b600082825260208201905092915050565b600061165582611175565b61165f8185611639565b935061166f818560208601611191565b611678816111bb565b840191505092915050565b6000602082019050818103600083015261169d818461164a565b905092915050565b600060ff82169050919050565b6116bb816116a5565b81146116c657600080fd5b50565b6000813590506116d8816116b2565b92915050565b6000602082840312156116f4576116f361109b565b5b6000611702848285016116c9565b91505092915050565b60007fff0000000000000000000000000000000000000000000000000000000000000082169050919050565b6117408161170b565b82525050565b600060208201905061175b6000830184611737565b92915050565b6000602082840312156117775761177661109b565b5b600082013567ffffffffffffffff811115611795576117946110a0565b5b6117a1848285016114a5565b91505092915050565b6117b3816115d6565b82525050565b60006020820190506117ce60008301846117aa565b92915050565b7f6e6f206164647265737300000000000000000000000000000000000000000000600082015250565b600061180a600a83611639565b9150611815826117d4565b602082019050919050565b60006020820190508181036000830152611839816117fd565b9050919050565b7f4e487b7100000000000000000000000000000000000000000000000000000000600052602260045260246000fd5b6000600282049050600182168061188757607f821691505b60208210810361189a57611899611840565b5b50919050565b60008190508160005260206000209050919050565b60006020601f8301049050919050565b600082821b905092915050565b6000600883026119027fffffffffffffffffffffffffffffffffffffffffffffffffffffffffffffffff826118c5565b61190c86836118c5565b95508019841693508086168417925050509392505050565b6000819050919050565b6000819050919050565b600061195361194e61194984611924565b61192e565b611924565b9050919050565b6000819050919050565b61196d83611938565b6119816119798261195a565b8484546118d2565b825550505050565b600090565b611996611989565b6119a1818484611964565b505050565b5b818110156119c5576119ba60008261198e565b6001810190506119a7565b5050565b601f821115611a0a576119db816118a0565b6119e4846118b5565b810160208510156119f3578190505b611a076119ff856118b5565b8301826119a6565b50505b505050565b600082821c905092915050565b6000611a2d60001984600802611a0f565b1980831691505092915050565b6000611a468383611a1c565b9150826002028217905092915050565b611a5f82611175565b67ffffffffffffffff811115611a7857611a776113a8565b5b611a82825461186f565b611a8d8282856119c9565b600060209050601f831160018114611ac05760008415611aae578287015190505b611ab88582611a3a565b865550611b20565b601f198416611ace866118a0565b60005b82811015611af657848901518255600182019150602085019450602081019050611ad1565b86831015611b135784890151611b0f601f891682611a1c565b8355505b6001600288020188555050505b505050505050565b7f4e487b7100000000000000000000000000000000000000000000000000000000600052603260045260246000fd5b600081905092915050565b6000611b6d82611175565b611b778185611b57565b9350611b87818560208601611191565b80840191505092915050565b6000611b9f8284611b62565b915081905092915050565b7f4e487b7100000000000000000000000000000000000000000000000000000000600052601160045260246000fd5b6000611be482611924565b91507fffffffffffffffffffffffffffffffffffffffffffffffffffffffffffffffff8203611c1657611c15611baa565b5b600182019050919050565b7f4e487b7100000000000000000000000000000000000000000000000000000000600052601260045260246000fd5b6000611c5b826116a5565b9150611c66836116a5565b925082611c7657611c75611c21565b5b828204905092915050565b6000611c8c826116a5565b9150611c97836116a5565b9250828201905060ff811115611cb057611caf611baa565b5b92915050565b6000611cc1826116a5565b915060ff8203611cd457611cd3611baa565b5b600182019050919050565b600081549050611cee8161186f565b9050919050565b818103611d03575050611ddb565b611d0c82611cdf565b67ffffffffffffffff811115611d2557611d246113a8565b5b611d2f825461186f565b611d3a8282856119c9565b6000601f831160018114611d695760008415611d57578287015490505b611d618582611a3a565b865550611dd4565b601f198416611d77876118a0565b9650611d82866118a0565b60005b82811015611daa57848901548255600182019150600185019450602081019050611d85565b86831015611dc75784890154611dc3601f891682611a1c565b8355505b6001600288020188555050505b5050505050505b56fea2646970667358221220aa855948d915f99e609ff39dc644317fa753e69b7cbd5d89435ec55db33cf10864736f6c63430008110033",
  "linkReferences": {},
  "deployedLinkReferences": {}
}